:020000021000EC
:10C0000000000120A90D0200D10D0200D30D020095
:10C01000D50D0200D70D0200D90D0200000000006E
:10C02000000000000000000000000000DB0D020026
:10C03000DD0D020000000000DF0D0200E10D020036
:10C04000E30D0200E30D020059E40100E30D0200DC
:10C05000E30D0200E30D020089E00100E30D0200A0
:10C06000E30D0200E30D0200E30D0200E30D020008
:10C07000E30D0200E30D0200E30D0200E30D0200F8
:10C08000E30D0200ADC80100E30D0200E30D020064
:10C0900071C90100E30D0200A1080200E30D0200D6
:10C0A000E30D0200E30D0200E30D0200E30D0200C8
:10C0B000E30D0200E30D020000000000000000009C
:10C0C000E30D0200E30D0200E30D0200E30D0200A8
:10C0D000E30D0200E30D0200E30D0200000000008A
:10C0E0000000000000000000000000000000000050
:10C0F0000000000000000000000000000000000040
:10C10000000000000000000000000000000000002F
:10C11000000000000000000000000000000000001F
:10C4000010B5054C237833B9044B13B10448AFF38E
:10C4100000800123237010BD942000200000000044
:10C4200070110200084B10B51BB108480849AFF362
:10C4300000800848036803B910BD074B002BFBD0F0
:10C44000BDE81040184700BF000000007011020056
:10C45000982000209020002000000000154B002BA9
:10C4600008BF134B9D46A3F5803A00218B460F462B
:10C470001348144A121A00F065F80F4B002B00D035
:10C4800098470E4B002B00D0984700200021040055
:10C490000D000D48002802D00C48AFF3008000F0DA
:10C4A0002BF82000290002F06DFE00F011F800BF0B
:10C4B0000000080000000120000000000000000053
:10C4C00094200020082F0020000000000000000041
:10C4D00008B5074B044613B10021AFF30080054BAC
:10C4E0001868836A03B19847204600F033F800BF0C
:10C4F00000000000380E020070B50E4B0E4CE41A1E
:10C50000A41000251E46A54204D056F825309847B1
:10C510000135F8E704F082FC084C094BE41AA4103A
:10C5200000251E46A54204D056F82530984701350F
:10C53000F8E770BD88200020882000208C20002093
:10C540008820002002440346934202D003F8011BD6
:10C55000FAE77047FEE700BF2DE9F84F234B1A7842
:10C560008AB3DFF88CB0DFF88C80DFF88C90002481
:10C570004FF0010A03E00134E4B2944223D226B220
:10C58000D8F80050DBF8003015F836000AFA00F150
:10C59000194205EBC607EED0154A23EA01031360E2
:10C5A00001F068FD15F83650D9F800300AFA05F1A7
:10C5B0000B4000FA05F18B4207D00C4B01341A787E
:10C5C000E4B29442DBD3BDE8F88F79787B68A1F1BF
:10C5D0000101B1FA81F14909002BEED0091A284670
:10C5E000B1FA81F149099847E7E700BFB820002078
:10C5F000E0200020B4200020DC20002070B506469A
:10C60000114800F001FD40B9104D01242B68B440E1
:10C610001C4203D023EA04042C6070BD304601F0B4
:10C6200029FD0B4E326860B122432B680949326004
:10C630001C432C60044809680022BDE8704000F0EB
:10C6400079BC22EA0402F0E7BC200020E0200020B0
:10C65000DC200020B0200020F0B5042A85B0174669
:10C6600002D8072005B0F0BD0191054601F0CCFBD2
:10C670000199002830D01C4CDFF888E01B481C4A88
:10C680001C4B256000264C1E07608EF800101660BB
:10C690001E60E4B2032709B918E01C4623B205EB7B
:10C6A000C30215F833009378134A8DF80D3003A9AF
:10C6B0008DF80C708DF80E608DF80F6001F0AEFBF8
:10C6C000631E0028CED1DBB2002CE6D10B4A0C4809
:10C6D000002100F01DFCC5E7019101F05DFB01990F
:10C6E0000028C8D0BEE700BFB4200020B020002042
:10C6F000DC200020E0200020FDC5010059C501001C
:10C700003C0E0200B820002070B5084D2B785BB1BC
:10C71000074E00243368012113F8340001F048FC6F
:10C720002B780134A342F5D8002070BDB82000203A
:10C73000B420002000B585B000230390194644F2D0
:10C74000010001AAADF80430029300F003F805B02F
:10C750005DF804FBBFF34F8F0549064BCA6802F42E
:10C76000E0621343CB60BFF34F8F00BFFDE700BF14
:10C7700000ED00E00400FA05484B494830B40121BF
:10C780004FF480344FF400352F22C0F88050C3F8A6
:10C7900048431046C3F808435960013800BF00BF42
:10C7A00000BF00BF00BF00BF00BF00BF00BF00BF91
:10C7B00000BF00BF00BF00BF00BF00BF00BF00BF81
:10C7C00000BF00BF00BF00BF00BF00BF00BF00BF71
:10C7D00000BF00BF00BF00BF00BF00BF00BF00BF61
:10C7E00000BF00BF00BF00BF00BF00BF00BF00BF51
:10C7F00000BF00BF00BF00BF00BF00BF00BF00BF41
:10C8000000BF00BF00BF00BF00BF00BF00BF00BF30
:10C81000C3D1244C9960002310462360013800BF27
:10C8200000BF00BF00BF00BF00BF00BF00BF00BF10
:10C8300000BF00BF00BF00BF00BF00BF00BF00BF00
:10C8400000BF00BF00BF00BF00BF00BF00BF00BFF0
:10C8500000BF00BF00BF00BF00BF00BF00BF00BFE0
:10C8600000BF00BF00BF00BF00BF00BF00BF00BFD0
:10C8700000BF00BF00BF00BF00BF00BF00BF00BFC0
:10C8800000BF00BF00BF00BF00BF00BF00BF00BFB0
:10C8900000BFC3D1044A137030BC70470010014080
:10C8A00000E100E0E4200020042100202DE9F04117
:10C8B000274A284B0025C2F84051C2F84451C2F81B
:10C8C0004851C2F84C51C2F80051C2F804511B68DB
:10C8D0001BB32149D2F804250C68204F141B1A6899
:10C8E00024F07F44A242A84609D8197CDE69A41A24
:10C8F0001544A1B91EB133461A68A242F5D9184BA6
:10C9000018491A780B789A421BD01749174A41F8F0
:10C9100023504FF48013C2F80031BDE8F081D3F802
:10C9200014C083F810803A689B69604619462AB1A2
:10C9300090470028DED0FFF7FDFEDBE71846E04712
:10C94000D8E7531CDBB2022B08BF00230B70DCE7D7
:10C9500000100140E8200020E4200020EC2000200E
:10C96000F8200020F9200020FC20002000E100E059
:10C970002DE9F04FA34AA44913780978A34887B05A
:10C9800000680190994200F061810133DBB2022B13
:10C9900008BF002313709E4A52F823C0019B9B4A94
:10C9A000634423F07F43136001230393994B9A4A16
:10C9B00093F800B0994B1268D3F800A0984B0592F9
:10C9C0001B780293914B1B680493D84600251146AF
:10C9D00008F1FF385FFA88F8B8F1FF0F4DD00FFA71
:10C9E00088F30AEBC3041AF833006778BE46704533
:10C9F000EED000EB4006636894F8029013F83670AE
:10CA00000130C0B2814508BF0020022F03EBC603EE
:10CA10000DD0032FEBD10AB9E9E71A46D369157493
:10CA2000002BFAD119461A4694F801E0DFE75F6857
:10CA3000002ADCD0974217D0164600E01E46F36964
:10CA4000002BD4D09F42F9D1B742334600F0EC809E
:10CA5000FE693F68DE61002EE6D033683B443360F8
:10CA600094F801E00A46C2E7D36917461946002B3D
:10CA700000F0E0801A463B46EAE713460A4668495A
:10CA80009DF80800087061490498086062490293A3
:10CA90000A6003991846002940F0DD80059B1B1AA7
:10CAA00018BF012303930D465C4B029E1B68059340
:10CAB000564BDFF87081D3F800E0574BD3F8009065
:10CAC000574B1B78049300274FF0010C30460BF1B5
:10CAD000FF3B5FFA8BFBBBF1FF0F00F08380059BF0
:10CAE00003EBCB04019455B36A68A9682B46ED6942
:10CAF000CEEB020626F07F4646453ED8314419600B
:10CB00005F609F6083F810C0DF61002866D0066810
:10CB10008E4244D28246019C03E016688E4245D282
:10CB20009246DAF81C20891B002AF6D10194DA61BA
:10CB3000024619601046CAF81C30002DD4D1019A63
:10CB4000137852789A42C2D0019E5A1C96F802A0DD
:10CB50007168D2B292453446327008BF224603EB68
:10CB6000430308BF157011F8332001EBC306012AF7
:10CB700073681FD002461046DFE7C2EB0E0222F0B8
:10CB80007F428A4202D2891A1960B9E71F605F604A
:10CB90009F6083F810C0DF6100B306680021711A3E
:10CBA0001A4601609946D8611046C6E7761A019484
:10CBB0001660BCE793F810A0BAF1000FDAD1B268A2
:10CBC0005A60F16899603469DC60049C76699E6102
:10CBD000002C8DD0C3F804A0524689E71A46994626
:10CBE0001046AAE70C4BC3F80090029B834206460E
:10CBF00052D1039B002B4FD1094A0023137007B079
:10CC0000BDE8F08FF8200020F9200020E42000206B
:10CC1000FC200020F0200020E8200020F42000204C
:10CC2000FA200020FEFF7F00D36937461946002B0B
:10CC30007FF420AF03F1804303F5883301220126FE
:10CC40009A600A4604913B46029601E74FF0000CB9
:10CC5000CDF80CC0AAE6002528462C46B3B11968C9
:10CC6000614500F2D880DE681C60C1EB0C0C084402
:10CC7000D9693EB1019ADD61821822F07F429E603F
:10CC80005A601D460B460A46002BE8D164490293C0
:10CC900001230A60039307E7002E00F0B980614981
:10CCA000614BD1F804451B68604DD6F800802878A8
:10CCB000E21A22F07F42033200285BD042452CBFAB
:10CCC0009A1803EB0802574922F07F43C1F8403518
:10CCD000D1F80425121B1B1B22F07F4223F07F4357
:10CCE00003329A4288D9D1F80435C1F840352F2053
:10CCF000013800BF00BF00BF00BF00BF00BF00BFC2
:10CD000000BF00BF00BF00BF00BF00BF00BF00BF2B
:10CD100000BF00BF00BF00BF00BF00BF00BF00BF1B
:10CD200000BF00BF00BF00BF00BF00BF00BF00BF0B
:10CD300000BF00BF00BF00BF00BF00BF00BF00BFFB
:10CD400000BF00BF00BF00BF00BF00BF00BF00BFEB
:10CD500000BF00BF00BF00BF00BF00BF00BF00BFDB
:10CD600000BF00BF00BFC3D1314B4FF40032C3F846
:10CD7000002141E72E4F4FF4803C4FF4003E012646
:10CD8000C1F844C32F20C1F804C3C7F880E1C7F835
:10CD900000E00E60013800BF00BF00BF00BF00BF51
:10CDA00000BF00BF00BF00BF00BF00BF00BF00BF8B
:10CDB00000BF00BF00BF00BF00BF00BF00BF00BF7B
:10CDC00000BF00BF00BF00BF00BF00BF00BF00BF6B
:10CDD00000BF00BF00BF00BF00BF00BF00BF00BF5B
:10CDE00000BF00BF00BF00BF00BF00BF00BF00BF4B
:10CDF00000BF00BF00BF00BF00BF00BF00BF00BF3B
:10CE000000BF00BF00BF00BF00BFC3D12E7055E7F9
:10CE1000FFF7B2FCF0E6CCEB0101196036E700BF8A
:10CE2000E820002000100140E42000200421002020
:10CE300000E100E02DE9F04F12F0030485B003D0CB
:10CE4000072005B0BDE8F08F002A49D08DE80F001B
:10CE5000FFF792FC0199029ADFF8A0B0917001EB04
:10CE6000410502F11807ED007E1991729174039B40
:10CE70001E49DFF88CA0DFF88090DFF88880DFF8AB
:10CE800088C0DFF888E0D66035445561CBF80030C3
:10CE90004FF48016C0230325147054705760147229
:10CEA000547214745474C9F800208AF80050C8F8F9
:10CEB00000408CF800408EF800400D4FC1F88061B2
:10CEC00081F814330E600098C7F8080581F8113313
:10CED000084AD7F804351360204605B0BDE8F08F46
:10CEE000054B07201A6005B0BDE8F08F00E100E0B7
:10CEF00000100140E4200020F4200020EC2000205D
:10CF0000F0200020E8200020F8200020F920002058
:10CF1000074B1B6823B12AB120B10368187C18B1F4
:10CF2000082070470720704759745A61704700BF46
:10CF3000F4200020304B1B6823B118B1042903D81A
:10CF40000720704708207047F0B54469002C4DD089
:10CF5000447C012C0CBF0E460026EFF30584C4F37D
:10CF6000080494B1103C65B2002D38DB05F1604433
:10CF700004F5614494F800436409E4B2022C39D00A
:10CF8000062C0CBF0824102400E0102423445C78F5
:10CF900093F802E01F78651CEDB2AE4508BF00258E
:10CFA000AF4225D004EB4404D3F804E0E4001EEBC8
:10CFB00004071DD04FF0010C0EF804C0DFF844E068
:10CFC00078600E4CDEF80405B8604FF4801EF960FE
:10CFD0003E617A615D70C4F800E10020F0BD084D4B
:10CFE00004F00F0425442C7E6409C6E70820F0BD38
:10CFF0000420F0BD0024C9E7F420002000E100E097
:10D00000FCEC00E000100140264B1A68F2B1034628
:10D01000E0B14169D1B10021F0B50174EFF30581B0
:10D02000C1F30801A1B1103948B2002833DB00F187
:10D03000604101F5614191F800134909C9B2022923
:10D0400027D006290CBF0821102102E008207047D4
:10D0500010210A445178957810784C1CE4B2A5420E
:10D0600008BF0024A04212D001EB41015068C90062
:10D0700010EB010E0BD00C4D022747544FF48016D5
:10D08000CEF804305470C5F800610020F0BD0420D3
:10D09000F0BD0021DDE7054801F00F010844017EE5
:10D0A0004909CBE7F420002000E100E0FCEC00E0BF
:10D0B00030B50E4C207883B010B1002003B030BDE5
:10D0C000012500950A490B4A4FF4806300F02CFAC1
:10D0D00010B1082003B030BD00900749074A102363
:10D0E00000F08EFA0028F4D12570E7E7182500201B
:10D0F000400E020018210020480E020008210020E6
:10D100000EB400B582B003AB02AA53F8041B42F878
:10D11000043D00F0ABFB02B05DF804EB03B07047D8
:10D120002DE9F04F784E337883B082468946174612
:10D130001BBB764ADFF8E0E1DFF8E081B3624FF431
:10D14000806C10257362F362B365F3657365022426
:10D150006F49B261B264C6F820C0C6F84CE0F01D59
:10D16000C6F81C8035653461746103F046FE3046B4
:10D17000684903F042FE2023B371EFF311804FF0B2
:10D18000800181F311884FEA4A0303EB0A084FEA52
:10D19000C80806EB08020190D16A012949D035D3AD
:10D1A00002293DD10AF1010A0AEB4A0A556A06EB47
:10D1B000CA0A4FF0000B1DE0126A641BBC422346F2
:10D1C000A2EB050428BF3B469C42DAF8040028BFC6
:10D1D0001C4622462844494603F004FE06EB080399
:10D1E00025441A6A954208BF00253F1BA344A14469
:10D1F0005D6217D006EB0802936AAB4203F1FF347D
:10D20000DAD8126A1344013B5C1BD7E7906A516A73
:10D2100088429CBF126A80180138411A8F4238D95F
:10D220004FF0000B019B83F31188584603B0BDE813
:10D23000F08F916A546AA14225D90139126AC4EB70
:10D24000010B534406EBC306203675682E4BBB45D5
:10D2500028BFBB46571B0AF1010ABB450AEB4A0A25
:10D260003AD303EBCA04494660683A462844C7EB00
:10D270000B0503F0B7FD606809EB07012A4603F0D0
:10D28000B1FD7560CEE7126A88180138C4EB000B57
:10D29000D7E7534406EBC30606F12008346AD8F8F2
:10D2A0000460194BA41B0AF1010AA7420AEB4A0ABF
:10D2B0001DD303EBCA0549466868224630443E1B2D
:10D2C00003F090FD686809EB0401324603F08AFD23
:10D2D000BB46C8F80460A5E703EBCA034946586893
:10D2E0005A4628445D4403F07DFD75609AE703EBE0
:10D2F000CA03494658683A4630443E4403F072FD3A
:10D30000BB46C8F804608DE7842E0020500E020052
:10D310005C0E0200600E02001C2500202C2500205F
:10D320002DE9F04F7A4E83B082460846884603F0D6
:10D330006CFD337807461BBB764ADFF8E4E1DFF883
:10D34000E491B3624FF4806C10257362F362B365AD
:10D35000F365736502247049B261B264C6F820C0F7
:10D36000C6F84CE0F01DC6F81C9035653461746158
:10D3700003F043FD3046694903F03FFD2023B371BC
:10D38000EFF311804FF0800181F311884FEA4A03D7
:10D3900003EB0A094FEAC90906EB09020190D16AB9
:10D3A000012949D035D302293DD10AF1010A0AEBFE
:10D3B0004A0A556A06EBCA0A4FF0000B1DE0126AD2
:10D3C000641BBC422346A2EB050428BF3B469C429B
:10D3D000DAF8040028BF1C4622462844414603F0E0
:10D3E00001FD06EB090325441A6A954208BF002592
:10D3F0003F1BA344A0445D6217D006EB0902936A69
:10D40000AB4203F1FF34DAD8126A1344013B5C1BD0
:10D41000D7E7906A516A88429CBF126A8018013827
:10D42000411A8F4238D94FF0000B019B83F31188CA
:10D43000584603B0BDE8F08F916A546AA14225D9DD
:10D440000139126AC4EB010B534406EBC3062036C4
:10D4500075682F4BBB4528BFBB46571B0AF1010A15
:10D46000BB450AEB4A0A3AD303EBCA04414660685B
:10D470003A462844C7EB0B0503F0B4FC606808EBA0
:10D4800007012A4603F0AEFC7560CEE7126A8818E1
:10D490000138C4EB000BD7E7534406EBC30606F193
:10D4A0002009346AD9F80460194BA41B0AF1010A57
:10D4B000A7420AEB4A0A1DD303EBCA054146686836
:10D4C000224630443E1B03F08DFC686808EB0401E3
:10D4D000324603F087FCBB46C9F80460A5E703EBBE
:10D4E000CA03414658685A4628445D4403F07AFC12
:10D4F00075609AE703EBCA03414658683A463044E0
:10D500003E4403F06FFCBB46C9F804608DE700BFE2
:10D51000842E0020500E02005C0E0200600E0200FD
:10D520001C2500202C2500202DE9F04F2E4C2678BC
:10D5300083B005460F46904699465EB322692A4B52
:10D54000AA424ED9EFF311824FF0800181F3118886
:10D55000019265B92A46154404EBC5040C9A019B57
:10D56000E26283F31188002003B0BDE8F08F691CEC
:10D570006A0001EB4101C900501903EBC00003EB45
:10D58000010E5F5000238362CEF80480C0F8209023
:10D590004362E0E7154BDFF860C0DFF860B0A662D9
:10D5A0004FF0100E4FF4806A02226662A361A364FA
:10D5B0000F49A665C4F84CC0C4F850E0E01DE6620F
:10D5C000E6656665C4F81CB0C4F820A022616261FB
:10D5D00003F013FC2046074903F00FFC2023A3713E
:10D5E000ACE74FF0FF30BFE7842E0020500E020062
:10D5F0005C0E0200600E02001C2500202C2500207D
:10D600002DE9F04F2B4C267883B005460F46904607
:10D6100099462EB361692748A94248D9EFF311868C
:10D620004FF0800181F31188019665B92E4635448B
:10D6300004EBC5040C9A019BE26583F3118800207A
:10D6400003B0BDE8F08F6E00711900EBC10100233B
:10D650008B658F64C1F84C80C1F850904B65E6E74C
:10D66000154BDFF860C0DFF860B0A6624FF0100E17
:10D670004FF4806A02226662A361A3640F49A66523
:10D68000C4F84CC0C4F850E0E01DE662E66566658B
:10D69000C4F81CB0C4F820A02261626103F0ADFBA5
:10D6A0002046074903F0A9FB2023A371B2E74FF0FE
:10D6B000FF30C5E7842E0020500E02005C0E0200F1
:10D6C000600E02001C2500202C2500202DE9F84FBB
:10D6D0001746B942884606461D46DDF828B00B9A23
:10D6E000C0F0B4800B464FF0010AB3FBF7F39F4242
:10D6F0000AF1010AF9D9AA4538BFAA4612F0010970
:10D7000002D1BBF1000F6AD1F168002960DBB26879
:10D71000012402E0013D07FB04F4012DFAD8B8FB17
:10D72000F4F39F42F7D9504D9C4606E0002921DBD7
:10D73000B4FBF7F4F4B1B8FBF4FC706815F80CE036
:10D74000531C834204FB1C8808D8316801F802E0AE
:10D75000F1687068B36001311A46F1608242E5D128
:10D7600030693168FFF7DCFCB268904232D04FF08C
:10D77000FF33F360B9F1000F2AD0BBF1000F63D083
:10D78000D3456BD9202500245F4605E0F368002BC4
:10D7900068DBEFB157451BD97368511C994207F1FB
:10D7A000FF3707D833689D54F2687368B160501C26
:10D7B000F0600A469A42E9D130693168FFF7B0FC5F
:10D7C000B368984238D04FF0FF33F360BDE8F88F6C
:10D7D000BDE8F88F0023F168B3601A46A6E7930707
:10D7E0002DD42024D3458FD9B268CDF828B0134664
:10D7F000A3460A9C05E0F168002931DB4CB354458F
:10D800002AD97268591C914204F1FF3408D8326851
:10D8100002F803B0F3687268B160581CF0600B4600
:10D820009A42E8D130693168FFF77AFCB3689842D0
:10D83000C9D10023B360DEE7B4600022A6E7002D63
:10D8400014BF20243024CDE7BDE8F88F4FF0010A43
:10D8500051E71A46A3465BE7A34658E7BDE8F88FB1
:10D86000BDE8F88FBDE8F88F680E02002DE9F04F93
:10D870009DB00023044603904025184609930A935F
:10D880009B46DFF8A0A40B940CAB0C469146079383
:10D89000089514F8013B002B5BD0252B63D10026A3
:10D8A000254614F8011BA1F123030D2B14D8DFE842
:10D8B00003F010131313131313130D130A13130789
:10D8C00046F00206ECE746F00106E9E746F00406FA
:10D8D000E6E746F00806E3E7A1F13003092B98BF1D
:10D8E000002400F2A18004EB840401EB440415F849
:10D8F000011FA1F13003092BA4F13004F3D92E2923
:10D900006AD0002701E015F8011B01F0FB03682B2A
:10D91000F9D0642900F0E18044D9732900F09780A0
:10D9200070D9752940F08280D9F800301A1DC9F8E5
:10D9300000201968009407A83B4601960A22FFF7C9
:10D94000C5FE0A986C1C002825DB14F8013B002B4F
:10D95000A3D100281FDD099A002A40F04881104415
:10D960001DB0BDE8F08F0999089A4D1C954215D855
:10D97000079A53540A98089A0995013095420A90DB
:10D98000E1D10B980799FFF7CBFB099B984200F078
:10D990002A814FF0FF301DB0BDE8F08F8A427FF43E
:10D9A00078AFEEE7582943D063297CD02529C9D127
:10D9B000099C089B621C9A4240F2088122469A42C6
:10D9C000C0D10B980799FFF7ABFB099B984266D132
:10D9D0000A98CDF824B0B5E76978A1F13003092B96
:10D9E00005F101054FF000078FD807EB870701EB22
:10D9F000470715F8011FA1F13003092BA7F13007E4
:10DA0000F3D982E770299DD1D9F800301A1DC9F8E1
:10DA100000201968CDF804B0082307A8009310224D
:10DA2000FFF754FE0A988DE7002468E7782989D12A
:10DA3000D9F800301A1DC9F800201968009407A809
:10DA40003B4601961022FFF741FE0A987AE7D9F883
:10DA500000301A1DC9F800201E680BE00798C15459
:10DA60000A98089B099201309A420A900FD0002828
:10DA7000FFF668AF16F8011B00293FF463AF099B5E
:10DA8000089C5A1CA242E9D9A342F3D11A460B982A
:10DA90000799FFF745FB099B984200F08B804FF0F8
:10DAA000FF300A904EE7D9F800400999089B221DE3
:10DAB000C9F800204A1C9A4224687FD90A469A4233
:10DAC0007FF440AF0B980799FFF72AFB099B984218
:10DAD000E5D1CDF824B00A9834E7D9F800301A1D02
:10DAE000C9F800201B6883EAE372A2EBE372092AFB
:10DAF0004FF0010808DD8AFB02E1D217C2EBA10258
:10DB0000092A08F10108F6DCB84538BFB84624B147
:10DB1000002B01DB710700D5013CB2075ED4F10791
:10DB200036D4002C34D0444532D90596099A46465D
:10DB30004FF0200C9846034605E0002BC0F2EC8025
:10DB400014B3B44220D90899501C884204F1FF3420
:10DB500008D8079901F802C00A9A08990990531C3D
:10DB60000A9302468A42E8D10B980799CDF810C073
:10DB7000FFF7D6FA099ADDF810C090428FD10A9BC0
:10DB8000CDF824B00022D8E718464346B046059E9B
:10DB9000002B34DB72074AD406F00302022A5ED05F
:10DBA000194607A88DE850003B460A22FFF78EFD74
:10DBB0000A98C7E60A98CDF824B058E7079B5C544A
:10DBC0000A98099201300A90089B78E7079B19553B
:10DBD0000A98099201300A90089BF0E6002FD7D0EE
:10DBE000F107D5D49DE70A98CDF824B0ABE60398A9
:10DBF0000CA9FFF795FA0A98099A1044B0E609991A
:10DC0000089A01F1010E9645C3F100036AD99142C9
:10DC1000C2D10B9807990493FFF782FA099A049BE3
:10DC200090427FF43CAFCDF824B00A9810E00999F7
:10DC3000089A01F1010E964543D8079A2B205054BB
:10DC40000A98089ACDF824E0013096450A903BD016
:10DC50000028FFF677AE06F00302022AA0D1002FBB
:10DC60009ED1002C4DD0A0459AD2CDF81090099AA3
:10DC70004FF0300C994605E000284FDB002C3DD0DA
:10DC8000444545D90899531C8B4204F1FF3408D808
:10DC9000079901F802C00A980899099301301A46B9
:10DCA0000A908A42E8D10B980799CDF814C0FFF783
:10DCB00037FA099ADDF814C0904224D0DDF81090AC
:10DCC000EDE691427FF468AF0B9807990493FFF754
:10DCD00027FA099A049B90427FF4E1AE0A98CDF8A6
:10DCE00024B0B5E7079A2D2050540A98089ACDF829
:10DCF00024E0013096450A90AAD18AE74B46DDF828
:10DD0000109000244CE70A98CDF824B00022B3E725
:10DD10004B46DDF8109043E7184613E6DDF8109007
:10DD200010E600BF676666660EB400B582B003AB4E
:10DD300002AA53F8041B42F8043DFFF797FD02B016
:10DD40005DF804EB03B07047002810B418DB00F155
:10DD5000604303F561434901C9B283F80013C3B2BC
:10DD60004009800000F1604000F5614003F01F02AF
:10DD700001239340C0F8803103605DF8044B704785
:10DD8000C3B2044A03F00F0449012244C9B2117618
:10DD9000E6E700BFFCEC00E038B5194C94F85450AD
:10DDA0000DB1082038BD4FF0FF3306200146FF2299
:10DDB00023636363A363E36323646364A364E3642F
:10DDC00023606360A360E36023616361A361E36137
:10DDD000236284F850306362A36284F85230E362B5
:10DDE00084F8533084F85120FFF7AEFF054A4FF016
:10DDF00000410123C2F8041384F85430284638BD8A
:10DE00002C29002000600040034B93F854000030A0
:10DE100018BF0120704700BF2C290020F0B5634CCB
:10DE2000251895F93030002B01DB0820F0BD91F862
:10DE300003E09446BEF1000F56D02368013300F092
:10DE4000AD80082600256B1C584F54F82320013262
:10DE500051D0AB1C9E4245D957F8232001324AD0FD
:10DE6000EB1C9E423ED957F82320013243D02B1D94
:10DE70009E4237D957F8232001323CD06B1D9E4279
:10DE800030D957F82370013735D0AB1D9E4229D9C0
:10DE900054F82320454F01322DD0EB1D9E4221D94D
:10DEA00057F82320013226D005F108039E4219D9E4
:10DEB00057F8232001321ED005F109039E4211D9E3
:10DEC00057F82320013216D005F10A039E4209D9E2
:10DED00057F8237001370ED00B35AE4202D9E36AF2
:10DEE000013307D00420F0BD236A01334ED00C2645
:10DEF0000825A8E70B232618DDB244F823C086F8CE
:10DF00003050BEF1000F02D1234483F848008B78D3
:10DF1000ABB94A784FF0A04600F5E073920046F89E
:10DF20002320CB78ABB96AB2083A1444097894F844
:10DF3000502042EA811284F850201846F0BD830038
:10DF400003F1A043D3F8002722F00202C3F8002710
:10DF5000E7E76BB29B0003F1804303F5C0430A7807
:10DF6000D3F8101521F4473121F44071C3F810158E
:10DF70001204000202F44031D3F8104500F4F852C4
:10DF80000A432243C3F810250020F0BD082685F877
:10DF900030603346C4F820C03546B5E7002385F825
:10DFA0003030C4F800C01D46B1E700BF2C29002066
:10DFB000F0B42E4D2E1882B096F8302053B2072BB5
:10DFC0001CDD2B4493F848309B09032B40D0012BD8
:10DFD0000CBF4FF400314FF44031800000F1A040FD
:10DFE000D0F8002722F44032C0F80027D0F80037DC
:10DFF0000B43C0F8003702B0F0BC7047072AFAD8CC
:10E00000980000F1804000F5C04003F1400292000A
:10E01000D0F8104592B202F18042002744F001048A
:10E0200002F5C042C0F81045019701981760002919
:10E03000E1D096F9302055F82220002ADBD00122C9
:10E040000B4902FA03F3C1F8043302B0F0BC704785
:10E050004FF0A0420123D2F810258340134214BF91
:10E060004FF440314FF40031B7E700BF2C290020B6
:10E07000006000404FF0A043D3F8103523FA00F0C1
:10E0800000F00100704700BF2DE9F04FA94B1A685E
:10E09000012A83B000F0B2800024A74B1A68012A3D
:10E0A00000F0BE80A54B1A68012A00F0CB80A44B7B
:10E0B0001A68012A00F0D880A24B1A68012A00F0E1
:10E0C000E580A14B1A68012A00F0F2809F4B1A6884
:10E0D000012A00F0FF809E4B1A68012A00F00C8193
:10E0E0009C4B1A68012A00F019814FF0000814F0C7
:10E0F000FF0F17D0E20700F13581A30700F141813E
:10E10000670700F14D81260700F15981E50600F10E
:10E110006581A00600F17181610600F17D81220612
:10E1200000F18981002C02DB03B0BDE8F08F8A4D3D
:10E130004FF0FF36A5F153074FF0000A874C4FF020
:10E14000000914F8011FFF2920D0C9B221F0C00036
:10E1500026FA00F3DB0719D53B18890993F930300B
:10E1600057F823204AB34FF0010E03290EFA00FEA0
:10E1700029D0830003F1A0431EEA080FD3F800C79B
:10E18000CCF3014C10D1BCF1030F1FD0AC42D8D15D
:10E19000B9F1000FC8D04FF0A043D3F8103598451F
:10E1A000C2D098465646C9E7BCF1020FEED103290A
:10E1B00011D0002AEAD09047E8E70329E6D14FF0D2
:10E1C000010E0EFA00FE4AEA0E0AD2E70329F0D148
:10E1D0004FF4003B01E04FF4403BD3F800C72CF470
:10E1E000403CC3F800C7D3F800E709F101094BEA46
:10E1F0000E0E5FFA89F9C3F800E7DAE75849D1F85B
:10E20000041311F001043FF448AF002119601B68AA
:10E210000093009B484B14461A68012A7FF442AFD2
:10E220004F4AD2F8042391077FF53CAF00221A60D1
:10E230001B680093009B414B1A68012A44F00204BA
:10E240007FF435AF464AD2F8042352077FF52FAF4B
:10E2500000221A601B680093009B394B1A68012A40
:10E2600044F004047FF428AF3D4AD2F80423170792
:10E270007FF522AF00221A601B680093009B314B90
:10E280001A68012A44F008047FF41BAF344AD2F81C
:10E290000423D6067FF515AF00221A601B68009391
:10E2A000009B294B1A68012A44F010047FF40EAF3A
:10E2B0002B4AD2F8042395067FF508AF00221A6096
:10E2C0001B680093009B214B1A68012A44F020042C
:10E2D0007FF401AF224AD2F8042350067FF5FBAE4B
:10E2E00000221A601B680093009B194B1A68012AD0
:10E2F00044F040047FF4F4AE194AD2F80423110626
:10E300007FF5EEAE00221A601B680093009B114B54
:10E310001A68012A44F080047FF4E7AE00221A60F4
:10E320001B6801934FF0A043019AD3F8108544F085
:10E330000044DCE6006100400461004008610040E8
:10E340000C61004010610040146100401861004001
:10E350001C6100407C6100407F2900207B29002057
:10E36000006000403A4B3B4AD3F81005D3F8101533
:10E370001368C0F30420C1F301419847A3077FF558
:10E38000BFAE334B334AD3F81405D3F81415536892
:10E39000C0F30420C1F30141984767077FF5B3AE8E
:10E3A0002B4B2C4AD3F81805D3F818159368C0F3F3
:10E3B0000420C1F30141984726077FF5A7AE244BFF
:10E3C000244AD3F81C05D3F81C15D368C0F30420E5
:10E3D000C1F301419847E5067FF59BAE1C4B1D4AF2
:10E3E000D3F82005D3F820151369C0F30420C1F336
:10E3F00001419847A0067FF58FAE154B154AD3F81B
:10E400002405D3F824155369C1F30141C0F3042056
:10E41000984761067FF583AE0D4B0E4AD3F8280569
:10E42000D3F828159369C0F30420C1F3014198473C
:10E4300022067FF577AE064B064AD3F82C05D3F8B3
:10E440002C15D369C0F30420C1F30141984769E654
:10E45000006000402C290020F0B59C4C237F85B043
:10E46000002B74D19A4AD2F80413890548D4984BEA
:10E47000D3F80423520710D5964A116869B1E17D9B
:10E480009248002940F008811160D3F81835627E67
:10E49000E17D8E4B914200F0E3808F4B1A68A2B170
:10E4A000A28AA17D894892B291424FF000021A607F
:10E4B00040F29280828A838A8568854992B20133CC
:10E4C000AA5C9BB28382C1F81C25844B1A68AAB14E
:10E4D000A27E00211960002A79D1E27D7B4B6AB1CE
:10E4E0005A7ED9688DF808200020012201918DF80C
:10E4F0000020D87593E806006846904705B0F0BD47
:10E50000774908680028B2D0A07E0B604FF40173F1
:10E51000C2F8083328B903F1804303F5F053012210
:10E520001A606B4A02238DF80030D2F88034C2F8AA
:10E530008034E07DE26803938DF8080000230192A7
:10E5400021686268E375684623769047A5E7644AC8
:10E550001368002B4FD1634A116839B15C481360CE
:10E56000D0F83C25E17DD2B2914260D05B4B1A6875
:10E57000A2B1E17D554800221A6079B1A3F5A273DA
:10E58000C168D3F83C358DF80830012301918DF82E
:10E590000030C27590E80A0068469847524B1A68E6
:10E5A000002AABD0A17D494800221A600029A5D0DD
:10E5B00047498368D1F84C158DF80810019382758E
:10E5C00090E80A008DF800206846984796E7A3F582
:10E5D000A27301221A6080E700293FF476AF8368B6
:10E5E0008DF808100193827590E80A008DF80020DC
:10E5F0006846984769E700233549136002208DF883
:10E600000000D1F88024C1F880240392D1F83C1591
:10E61000E2688DF80810019221686268E375684627
:10E62000237690472D4B1A68002AB7D0A1E7277EA2
:10E63000002F3DD0D0F80022E77522F02007E668D1
:10E640002569C0F8007201208DF808108DF80000CF
:10E650002376216801966846E5606368984785E7F8
:10E660001A7E002A44D19B7E13B9204B01221A60E6
:10E67000174AE06863684FF40171C2F80813627EBC
:10E680008DF80820012201908DF8002021680022D9
:10E690006846E275984700E700211160427ED3F892
:10E6A0001855437EC1680133DBB28D544376EEE6E4
:10E6B000E2688DF8081001238DF80030019294E88B
:10E6C0000A00E7756846984750E700BF8429002094
:10E6D00000200040082100401C210040442100404F
:10E6E000242100401021004020210040042000404F
:10E6F000D968587E019101218DF808008DF800102D
:10E700001E69DA7593E8220000226846DE601A76F8
:10E710005A76A847C1E600BF4FF0A042D2F80435B0
:10E72000D94301F4002103F40023C2F80815C2F80C
:10E730000C3570470D282DE9F047044607D00E2808
:10E7400037D00F2837D0102837D0BDE8F087002504
:10E75000012911D020D30229F7D1214B05EB450522
:10E760001D446E78002EF0D01E4B1B68002BECD0A1
:10E770003046BDE8F0471847DFF864806F007B192A
:10E7800008EB030218F803605378C3B92F444744D9
:10E79000154BBA785A55E5E71448FEF735FC104991
:10E7A000114A05EB45030B44565D9B789E42CCD144
:10E7B000D8E70125CCE70225CAE70325C8E70C4BBB
:10E7C000DFF830901968094801EB810149004A4699
:10E7D000FEF7B0FB0028D9D189F80040D6E700BF8A
:10E7E000202A0020D8290020D0290020DC29002060
:10E7F000D4290020A4290020C94B1B68DB0700D4C2
:10E80000704770B5C74B1C78172C22D8DFE814F07E
:10E81000680075007500AE00D500F5001A013D01D5
:10E820003900220039002200180050015001500127
:10E83000500150014E0058009E0078011800180049
:10E840004FF0A0434FF4F0110022C3F80C15C3F8A9
:10E85000082570BD4FF0A042B34CD2F80435B34840
:10E86000D94301F4802103F48023C2F80815C2F8CB
:10E870000C352168002201EB8101BDE87040FEF7F4
:10E8800059BB4FF0A042A84CD2F80435A748D94351
:10E8900001F4802103F48023C2F80815C2F80C3576
:10E8A00021680022BDE87040FEF744BB4FF0A04352
:10E8B0004FF4F0110022C3F80815C3F80C2570BD01
:10E8C0004FF0A04300224FF4E0104FF40031C3F8A2
:10E8D0000805C3F80C25C3F80C15C3F8082570BD4E
:10E8E000934B1B684FF0A042DB4303F4F01300216D
:10E8F000C2F80835C2F80C1570BD8D4A12684FF089
:10E90000A040D24302F4E0120025C0F80825C0F868
:10E910000C55D0F8042582F4F01212F4003200F005
:10E920003881022C4FF40032C0F808250CBF0121B9
:10E930002821C0F80C557C4A1C7012687B4802FBE9
:10E9400001F1BDE870400022FEF7F4BA4FF0A04399
:10E9500000224FF4D0104FF48021C3F80805C3F80B
:10E960000C25C3F80C15C3F8082570BD704A126851
:10E970004FF0A040D24302F4E0120024C0F8082572
:10E98000C0F80C45D0F8042582F4F01212F40032DD
:10E9900000F0F7804FF40032C0F808250821C0F8D5
:10E9A0000C45614A6148126803241C7002FB01F1A6
:10E9B000BDE870400022FEF7BDBA5D4A12684FF014
:10E9C000A040D24302F4E0120024C0F80825C0F8A9
:10E9D0000C45D0F8042582F4F01212F4003200F055
:10E9E000C1804FF40032C0F808252821C0F80C453A
:10E9F0004D4A4E4812680424D7E74D4A12684FF03A
:10EA0000A041D24302F4E0120020C1F80825C1F869
:10EA10000C05D1F8042582F4F01212F4003200F053
:10EA2000A9804FF40032C1F80825C1F80C053E4A10
:10EA30003E48116805241C7049000022BDE8704062
:10EA4000FEF778BA3A4A12684FF0A041D24302F476
:10EA5000E0120020C1F80825C1F80C05D1F8042502
:10EA600082F4F01212F4003275D04FF40032C1F883
:10EA70000825C1F80C052C4A2C48116806241C7086
:10EA80000022BDE87040FEF755BA294B1B684FF0D5
:10EA9000A042DB43002103F4E0134FF40030C2F83E
:10EAA0000835C2F80C15C2F80C05C2F8081570BD7F
:10EAB0002048FEF7A9FAD4F1110402463ED00028FE
:10EAC0003CD11B4E4FF40023012C336010D0C825DD
:10EAD000194B15491748096805FB04F4A3FB0443C7
:10EAE0005B0901FB03F1FEF725FA336803F4F01329
:10EAF0004FF0A0420021C2F80C35C2F8081570BDD5
:10EB00004FF0A04300224FF4C0104FF4C021C3F8CF
:10EB10000805C3F80C25C3F80C15C3F8082570BD0B
:10EB2000AC290020FC290020D4290020B029002095
:10EB3000A8290020002A00201F85EB511A4A1368DB
:10EB40004FF0A040002103F4F013C0F80835C0F8DE
:10EB50000C15116070BD4FF40030C1F80C05C1F800
:10EB6000082588E74FF40031C0F80C150421C0F8DF
:10EB700008253DE74FF40030C1F80C05C1F8082521
:10EB800055E74FF40031C0F80C150221C0F80825F4
:10EB900007E74FF40031022CC0F80C150CBF13210D
:10EBA0000421C0F80825C6E6A829002003780D2B0B
:10EBB00015D00E2B15D00F2B04D0102B08BF03231C
:10EBC00001D070470223084A03EB430313445878EB
:10EBD0000028F6D0054B1B68002BF2D01847002305
:10EBE000F1E70123EFE700BF202A0020D829002009
:10EBF000F8B5BF4B1A6812F0010201D11046F8BDFA
:10EC00000446172800F2EA81DFE810F039014901D3
:10EC100049017C00A400CC00F20058002F0018002D
:10EC20002F00180017017C017C017C017C017C0114
:10EC3000A40125012F0144006F006F004FF0A04296
:10EC4000AC4CD2F80435AC48D94301F4802103F42C
:10EC50008023C2F80815C2F80C352168002201EBA8
:10EC60008101BDE8F840FEF765B94FF0A042A14C24
:10EC7000D2F80435A048D94301F4802103F480235D
:10EC8000C2F80815C2F80C3521680022BDE8F8402A
:10EC9000FEF750B999484FF0A0434FF4C01200213D
:10ECA0004FF4C0251524C3F80825C3F80C150A46EF
:10ECB000C3F80C55C3F8081504709FE7904B8F4CB0
:10ECC0001B684FF0A041DB43002003F4E0134FF436
:10ECD00000360725C1F808350246C1F80C05C1F811
:10ECE0000C65C1F80805257088E74FF0A0438348FC
:10ECF0004FF4F0120021C3F80C25C3F808150A469A
:10ED000004707BE77E4B1B684FF0A042DB4303F4AB
:10ED1000E0130020C2F80835C2F80C05D2F804351B
:10ED200083F4F01313F4003300F041814FF4003307
:10ED3000C2F808350821C2F80C056E4A6F4B1268FC
:10ED40006D4803241C7002FB01F1BDE8F84000226D
:10ED5000FEF7F0B86A4B1B684FF0A042DB4303F4A8
:10ED6000E0130020C2F80835C2F80C05D2F80435CB
:10ED700083F4F01313F4003300F021814FF40033D7
:10ED8000C2F808352821C2F80C055A4A5B4B1268B4
:10ED9000594804241C7002FB01F1BDE8F840002230
:10EDA000FEF7C8B8564B1B684FF0A042DB4303F494
:10EDB000E0130021C2F80835C2F80C15D2F804356A
:10EDC00083F4F01313F4003300F001814FF40033A7
:10EDD000C2F80835C2F80C15464A484B1168464837
:10EDE00005241C7049000022BDE8F840FEF7A2B8D7
:10EDF000434B1B684FF0A042DB4303F4E0130021B8
:10EE0000C2F80835C2F80C15D2F8043583F4F013B3
:10EE100013F4003300F0B9804FF40033C2F8083522
:10EE2000C2F80C15354B334A3348116806241C7060
:10EE30000022BDE8F840FEF77DB84FF0A0432F4810
:10EE40004FF4F01200210C24C3F80C25C3F8081568
:10EE50000A460470D2E64FF0A04328484FF4E0126F
:10EE600000214FF4003513241DE74FF0A043234841
:10EE70004FF4D01200214FF48025142413E7204BC7
:10EE80001E4C1B684FF0A040DB43002103F4F0133D
:10EE9000C0F808350A46C0F80C152170AEE6184BCC
:10EEA0001B684FF0A042DB4303F4E0130020C2F8DC
:10EEB0000835C2F80C05D2F8043583F4F01313F4C6
:10EEC000003369D0022C4FF40033C2F808350CBF70
:10EED00001212821C2F80C05064B084A1B68147052
:10EEE00003FB01F104480022BDE8F840FEF722B818
:10EEF000AC290020D4290020B0290020FC290020C2
:10EF0000A82900203648FEF77FF8D4F11104024604
:10EF10002ED068BB334E4FF40023012C336011D048
:10EF2000314B324F19682E48C82505FB04F3A7FB67
:10EF300003435B0901FB03F1FDF7FCFF3368024665
:10EF400003F4F0134FF0A0410020C1F80C35C1F8D4
:10EF5000080553E64FF0A04325484FF4F012002176
:10EF60001224C3F80825C3F80C150A46047045E6B8
:10EF70001C490B684FF0A044002003F4F013C4F8C0
:10EF80000835C4F80C05086038E64FF40031C2F8C3
:10EF90000C15C2F8083545E74FF40031022CC2F8D1
:10EFA0000C150CBF13210421C2F8083594E74FF467
:10EFB0000031C2F80C150221C2F80835BDE64FF445
:10EFC0000031C2F80C150421C2F80835DDE64FF413
:10EFD0000031C2F80C15C2F80835FDE600220DE636
:10EFE000002A0020A8290020D42900201F85EB51E9
:10EFF000FC290020F8B5234D234E244B28600446FD
:10F0000010F0020031601A601FD0214B21484FF0F0
:10F010000D0E0E270F2610254A0883F800E0042164
:10F02000DF709E715D72FDF717FBF0B1E3070BD542
:10F030004FF0A0434FF4F0120021C3F80825C3F8A5
:10F040000C15C3F8182510B1F8BDE207F0D412482A
:10F05000124A0021FDF75CFF0028F5D11048114A43
:10F060000121BDE8F840FDF753BFFDF74DFB002837
:10F07000DCD101460C4A0D48FDF74AFFE107E2D515
:10F08000D6E700BFAC290020D4290020D8290020D1
:10F09000202A0020800E02007C0E0200F9E7010009
:10F0A000A00E020019E70100ADEB0100780E02008E
:10F0B00073DF704778DF70477ADF70477CDF704717
:10F0C00048DF704700200149FEF72EBEAC0E02005B
:10F0D00001F032BE38B52549028804460020FEF70B
:10F0E00023FE204601F062F92388112B24D01B2B2C
:10F0F00012D0102B04D02046BDE8384001F0C0BD2E
:10F100001B4BA2881B491A800020FEF70DFE2046EB
:10F11000BDE8384001F0B4BD1748FFF7C9FFC8B9D2
:10F120000220FFF765FD0028E5D0FDF703FB204630
:10F13000BDE8384001F0A4BD0D4D10492A880020DB
:10F14000FEF7F2FD4FF6FF730B482B80FFF7B0FF81
:10F150000028E5D002460A490020FEF7E5FD02201E
:10F16000FFF746FD0028C6D0DFE700BFCC0E020047
:10F170006C200020E40E0200542C0020040F02003A
:10F180007C0F0200F0B50020A5B0034605218B4A94
:10F19000FDF750FE08B1FDF7CDFA012040F6CD4154
:10F1A0000022FFF727FF08B1FDF7C4FA84490020C9
:10F1B000FEF7B6F8834B844918680890482208A8DF
:10F1C000002301F015FB08B1FDF7B4FA16AA0020E0
:10F1D000012101F07DFB024618B100207B49FEF7BA
:10F1E000A3FD02231A4600207949ADF85830FEF7F6
:10F1F0009BFD784801F084FB08B1FDF79BFA16A847
:10F2000001F0A2FB024618B100207349FEF78CFD05
:10F21000724801F031FB024618B100207049FEF738
:10F2200083FD704801F032FB024618B100206E49A0
:10F23000FEF77AFD9DF820306C48012262F303034B
:10F2400062F307138DF8203001F0DFFD674982B2C9
:10F2500008A8FFF733FF08B1FDF76CFA4FF4007010
:10F26000FFF728FF08B1FDF765FA0021082216A86C
:10F27000FDF768F92824482100224FF4C87316A826
:10F28000ADF85840ADF85A10ADF85C20ADF85E30DE
:10F29000FFF712FF08B1FDF74DFA00211C2216A856
:10F2A000FDF750F94FF4203500234FF4702403216B
:10F2B000012216A81693ADF86630179518948DF8AC
:10F2C00064108DF8682001F037F808B1FDF732FAC4
:10F2D0000021082203A8FDF735F9454A454B464869
:10F2E000039203A9049300F097F808B1FDF722FAFE
:10F2F000424A414B10681A78019000210C46404B5D
:10F300008DF80A2044F2D4674FF6AA6610253822F9
:10F3100008A8ADF80870ADF81460ADF81850079360
:10F320000125FDF70FF901AF05AB2146382216A8DC
:10F33000062612938DF820400D978DF82360ADF8C6
:10F3400030508DF84C50FDF7FDF8022202AB2146FB
:10F3500008A88DF85A40ADF868508DF858201B93D6
:10F3600000F082FC08B1FDF7E5F9264C00211822D7
:10F370002046FDF7E7F84FF0A04300254FF4F016C4
:10F380003C222570A021C3F80C652046C3F808551F
:10F3900062822182FFF78CFE024618B128461A4984
:10F3A000FEF7C2FC0220FFF723FC18B9FFF788FE26
:10F3B0000028FBD0FDF7BEF9F8E700BF8C2A00203B
:10F3C000240F0200A40E0200442A0020400F020075
:10F3D0005C0F0200E81F00206C0F0200D5F0010056
:10F3E000880F0200D1F00100B00F0200D80F020018
:10F3F000C5F00100582000202C2A0020A80E020091
:10F4000070200020542C00207C0F0200A0DF7047E9
:10F41000A2DF704763DF70472DE9F0415F4C05467E
:10F4200098B0A268E36820680F464FF6FF7E6168D7
:10F43000A5F80CE004AE0FC654F8100F3B682B6122
:10F440006168A268E3687C686C6108AC0FC42946F7
:10F4500004A8FFF7DFFF002840F099802A4618A98A
:10F4600044F2D46012F8023B21F8580D01208DF8C7
:10F470000A30FFF7CBFF002840F0838008A8691C02
:10F48000FFF7C8FF002876D1002103226846FDF768
:10F4900059F89DF800309DF801409DF80270012652
:10F4A00066F3030304F0F00466F3071366F3420700
:10F4B0006FF3071400211C2211A88DF800308DF87D
:10F4C00001408DF80270FDF73DF89DF844306A78F0
:10F4D0008DF80E2000240DF1040843F002032146AC
:10F4E00041F2F077032240468DF84430ADF80C70BD
:10F4F00012941494159416941794FDF723F89DF81C
:10F5000006309DF804709DF805E066F3420366F34B
:10F51000030703F0E7030EF0F00E66F3071764F33A
:10F52000000364F3071E214614220CA88DF8047012
:10F530008DF806308DF805E0FDF704F86B6910933F
:10F540000CAA112711A903AE6888CDF834802B1DB1
:10F55000ADF83A400C96ADF83870ADF83C70FFF756
:10F5600057FF024618B120460D49FEF7DDFB00208B
:10F5700018B0BDE8F08102460A490020FEF7D4FB2E
:10F5800082E7024608490020FEF7CEFB76E70246F6
:10F5900006490020FEF7C8FB60E700BFE40F020049
:10F5A0004C100200341002001C1002000410020073
:10F5B00071DF704772DF704779DF70477DDF70471A
:10F5C00065DF7047F0B50488012C83B007D014883C
:10F5D00004F1020E9E4505D90C2003B0F0BD0720B2
:10F5E00003B0F0BD0578012D04D1457802352544DE
:10F5F000AB42F1D3023B0F461C1B02A9A4B2054645
:10F6000021F8024D07EB0E001646FFF7D7FF002842
:10F61000E3D12B78022B17D0012B11D023460821E0
:10F62000FE2BD9D83288581CB8543288013292B295
:10F630003280B95432880132134433800020CCE741
:10F640006B789C42EBD2E9E7BDF806309C42E5D3EB
:10F650000921E5E72DE9F04F85B083460E9D00882E
:10F660002C880194BDF83C9000284ED000278A4693
:10F67000164698463C4604E0BBF800300134A342ED
:10F6800026DDDBF8043053F8240003900DF10B0164
:10F6900003A80022FFF794FF18BB9DF80B30B3427C
:10F6A000EAD10FB32A8893194B4519DC424403A8C9
:10F6B0000DF10B010127FFF783FF90B92B889DF80F
:10F6C0000B2013442B80BBF800300134A342D8DC5C
:10F6D000DFB12B88019A013B9B1A9BB2FF2B12D9F9
:10F6E0000C2005B0BDE8F08F2B885A1C3344023340
:10F6F0004B4592B2F4DC2A8008F802A02A88013235
:10F7000092B22A80D2E708F80230002005B0BDE8A6
:10F71000F08F00BF2DE9F047002317881380446B5A
:10F7200084B0BCB1022F247803D80C2004B0BDE80B
:10F73000F08702230B70138801339BB211251380CD
:10F74000CD54138801339BB21380CC5414880134F8
:10F75000A4B21480036B002B6FD004F11205BD42DC
:10F76000E3D811250D5514880134A4B21025148056
:10F770000D5514880134A4B21480DD7B0D55148816
:10F780000134A4B214809D7B0D5514880134A4B2B9
:10F7900014805D7B0D5514880134A4B214801D7B48
:10F7A0000D5514880134A4B21480DD7A0D551488E7
:10F7B0000134A4B214809D7A0D5514880134A4B28A
:10F7C00014805D7A0D5514880134A4B214801D7A1A
:10F7D0000D5514880134A4B21480DD790D551488B8
:10F7E0000134A4B214809D790D5514880134A4B25B
:10F7F00014805D790D5514880134A4B214801D79EC
:10F800000D5514880134A4B21480DD780D55148888
:10F810000134A4B214809D780D5514880134A4B22B
:10F8200014805D780D5514880134A4B214801B78BF
:10F830000B5514880134A4B2148090F82E30002B9C
:10F840005FD190F82D300D4606469046002B71D1C1
:10F85000B378002B40F0A280F378D3B1E21CBA4217
:10F860003FF663AF02222A55B8F80020013292B267
:10F870000121A8F80020A954B8F800200A4492B247
:10F88000A8F80020AB54B8F800400C44A4B2A8F883
:10F8900000407268D2B1E31CBB4212783FF645AF1C
:10F8A00002232B55B8F8003001339BB20A21A8F887
:10F8B0000030E954B8F8003001339BB2A8F80030AA
:10F8C000EA54B8F800300133A8F800303389002B2F
:10F8D00040F01181338A002B40F08F81338B002B55
:10F8E00040F0A681336A002B00F0C580B8F80020F4
:10F8F000911DB9423FF619AF1988052977D807201D
:10F9000014E7E51CBD423FF610AF02250D551488E3
:10F910000134A4B21C2514800D5514880134A4B2FE
:10F92000013B1480032BEAD8DFE813F06101640186
:10F930005E0157010934BC423FF6F7AE02A8FFF75B
:10F9400037FE00287FF4F2AEB8F800300822EA54FF
:10F95000B8F8003001339BB21B22A8F80030EA54FB
:10F96000B8F80000013080B2A8F800000622284450
:10F970000DF1090101F036FAB8F800309DF80820C1
:10F9800006339BB2A8F8003002B10122EA54B8F85D
:10F9900000400134A4B2A8F8004059E70434BC4246
:10F9A0003FF6C3AE02A8FFF707FE00287FF4BEAE05
:10F9B000B8F80030BDF808200321E954B8F8003049
:10F9C00001339BB21921A8F80030E954B8F800308F
:10F9D00001339BB2E918A8F80030100AEA544870C5
:10F9E000B8F800400234A4B2A8F8004034E76FF43D
:10F9F000486C01EB0C0080B24FF27D34A0427FF6E0
:10FA00007EAF588805287FF67AAF6FF4486E86443B
:10FA10001FFA8EFEA6457FF672AF4FF6FF74A14225
:10FA200004D0A04202D081423FF669AF0521A9541B
:10FA3000B8F80020013292B21221A8F80020A9548F
:10FA4000B8F80020013292B2A8F800201988A95411
:10FA50002A44090A5170B8F80020023292B2A8F87C
:10FA600000205B88AB542A441B0A5370B8F800305E
:10FA70000233A8F80030746AACB3A288B8F800105A
:10FA8000131D0B44BB423FF650AE931CFE2B3FF6BA
:10FA90004CAE03326A54B8F8003001339BB2FF22F7
:10FAA000A8F80030EA54B8F8003001339BB2A8F847
:10FAB00000302288EA542B44120A5A70B8F8000029
:10FAC000023080B2A8F80000A28862B1A1680029C3
:10FAD0003FF415AF284401F085F9A388B8F8002059
:10FAE0001344A8F8003096F82C30FBB93378002B7B
:10FAF0006CD118461AE606F108040221CDF8008000
:10FB0000019720460A462B46FFF7A4FD00287FF404
:10FB10000DAECDF8008001972046062110222B461D
:10FB2000FFF798FD00287FF401AED3E6B46A002CFD
:10FB30003FF4E5AEA2880232FE2A3FF6F6ADB8F8F1
:10FB400000304FF000094FF0160A07E0B46A04EBEA
:10FB50008104A2880232FE2A3FF6E7AD0132EA5460
:10FB6000B8F8003001339BB2A8F8003005F803A0C4
:10FB7000B8F8003001339BB2A8F800302288EA546C
:10FB80002B44120A5A70B8F8003002339BB2A8F81E
:10FB90000030A188E8180A4669B1A3681946002B0D
:10FBA0003FF4ADAE01F01EF9A388B8F8002013446D
:10FBB0009BB2A8F8003009F1010996F82C205FFAF1
:10FBC00089F94A4509EB4901C0D88FE730462946F3
:10FBD00042463B46FFF7F6FCA8E503230B55148885
:10FBE0000134A4B214802CE602230B55F7E700235E
:10FBF0000B55F4E701230B55F1E706F11004CDF89E
:10FC0000008001972046032102222B46FFF722FDA8
:10FC100000287FF48BADCDF80080019720460721A6
:10FC200010222B46FFF716FD00287FF47FAD55E626
:10FC300006F11804CDF80080019720461421022215
:10FC40002B46FFF707FD00287FF470ADCDF800804C
:10FC500001972046152110222B46FFF7FBFC0028B8
:10FC60007FF464AD3EE600BF2DE9F04395B01F235D
:10FC70000D46ADF80E300446002800F09F80C37892
:10FC80005B0740F19780436B0022ADF80C20002BFE
:10FC900000F06F811B788DF81230032202201121B1
:10FCA0008DF810001346ADF80C208DF811100520CA
:10FCB0000426216B002965D014AA13441644112789
:10FCC00003F8407C102214AB06F8402C0344CA7B96
:10FCD00003F8402C14AB03448A7B03F83F2C14AB8D
:10FCE00003444A7B03F83E2C14AB03440A7B03F81D
:10FCF0003D2C14AB0344CA7A03F83C2C14AB0344E8
:10FD00008A7A03F83B2C14AB03444A7A03F83A2C62
:10FD100014AB03440A7A03F8392C14AB0344CA79B0
:10FD200003F8382C14AB03448A7903F8372C14AB4E
:10FD300003444A7903F8362C14AB03440A7903F8D8
:10FD4000352C14AB0344CA7803F8342C14AB0344A9
:10FD50008A7803F8332C00F10E0314AAADF80C30A6
:10FD600013444E7803F8406C00F10F0214AB1344B7
:10FD7000ADF80C2000F11002097803F8401CADF832
:10FD80000C2092B294F82E30002B40F0158294F89B
:10FD90002D30002B40F01F81A378002B40F05281C2
:10FDA000E378002B3AD0D11C1F2922D90C2015B0A2
:10FDB000BDE8F083072015B0BDE8F083ADF80C0076
:10FDC000002D00F0DA80EB78002BF3D128460CA947
:10FDD0000DF10E02FFF79EFC0028ECD19DF80E30CD
:10FDE0000CAA20469DF80C10FFF7E4FB15B0BDE807
:10FDF000F083561C14AF901C17FA86F6174414AA09
:10FE000012FA80F04FF0020E8AB2012107F840EC9E
:10FE1000ADF80C2006F8401C00F8403C6368B3B114
:10FE2000D11C1F291E78C1D814AF501C931C17FA7F
:10FE300080F03A4417FA83F34FF0020E0A2702F8D3
:10FE400040ECADF80C1000F8407C03F8406C2389BE
:10FE5000002B40F09780238A002B40F01D81238BDC
:10FE6000002B40F03781236A002B42D0BDF80C20D4
:10FE7000911D1F299AD8188805289BD96FF4486CC2
:10FE800000EB0C06B6B24FF27D37BE4292D95E88C7
:10FE9000052E8FD96FF4486EB6441FFA8EFEBE450C
:10FEA00088D94FF6FF77B84203D0BE4201D0B042A6
:10FEB00080D814A8561C10FA86F600EB020E901C8F
:10FEC00080B212274FF0050C0EF840CCADF80C00B4
:10FED00006F8407C1F88ADF80C1004AE311837547A
:10FEE00004323F0A4F7092B25B88B35432441B0A0B
:10FEF0005370676A9FB3B888BDF80C30811C9A1C98
:10FF000056181F2E3FF652AFFE293FF64FAF14AEE4
:10FF1000591C06EB030E16FA81F192B20330FF264C
:10FF20000EF8400CADF80C2001F8406C398804AE96
:10FF3000B018B154090A41700433BA8898B2ADF8C8
:10FF40000C0062B1B96800293FF434AF304400F0CE
:10FF500049FFBDF80C30BA881344ADF80C3094F862
:10FF60002C30002B40F0D48004AE237843BB3446C1
:10FF700026E71A46022001269BE62B46ADF80E50D6
:10FF80002A462EE703AA04F1080704AE4FF01F0823
:10FF900002218DE80401384633460A46FFF75AFB32
:10FFA00000287FF408AF03AB8DE8080138463346DC
:10FFB00006211022FFF74EFB00287FF4FCAE4AE733
:10FFC0002046314603AA1F23FFF7FCFA00287FF4DE
:10FFD000F2AE3446F4E609321F2A3FF6E7AE0CA82B
:10FFE000FFF7E6FA00287FF4E6AEBDF80C3014AA5D
:10FFF00003F1010E12FA8EFE9F1C1344BFB24FF0A4
:020000022000DC
:100000001B0C04AE4FF0080803F8408C0DF13101D1
:100010000622F0190EF840CCADF80C7000F0E2FEAC
:10002000BDF80C209DF83010931D9BB2002940F0C4
:10003000BD8014A8034403F8401C073292B2ADF807
:100040000C20A9E604321F2A3FF6B0AE0CA8FFF739
:10005000B3FA00287FF4AFAEBDF80C30BDF83070B5
:10006000991C14AA581C89B204AE02EB030812FAB8
:1000700080F0043306EB010E9AB24FF003094FF003
:10008000190C3B0A08F8409CADF80C2000F840CC55
:1000900077548EF8013083E603AA04F1100704AE0A
:1000A0004FF01F088DE80401384633460321022231
:1000B000FFF7D0FA00287FF47EAE03AB8DE808018D
:1000C0003846334607211022FFF7C4FA00287FF490
:1000D00072AEC4E603AA04F1180704AE4FF01F087D
:1000E0008DE804013846334614210222FFF7B2FAA4
:1000F00000287FF460AE03AB8DE808013846334634
:1001000015211022FFF7A6FA00287FF454AEAAE6C4
:10011000A76A002F3FF44EAEB9880231FE293FF6A0
:1001200045AE9E46BDF80C304FF0000804AE4FF0CF
:10013000160914AA581C02EB030C12FA80F09A1C40
:1001400092B201310CF8401CADF80C2000F8409C34
:100150003988B1543244090A51700433B9889BB2CA
:100160000A46F018ADF80C3079B1BB681946002B7F
:100170003FF420AE00F036FEBDF80C30BA8894F89B
:100180002CE013449BB2ADF80C3008F101085FFA83
:1001900088F8F04508EB4807BFF4E7AEA26A02EB27
:1001A0008707B9880231FE29C3D9FFE514A90B449A
:1001B000012103F8401C40E714A9501C14AE11FAA9
:1001C00080F04FF0020E16441C2702EB0E01013B9B
:1001D00006F840EC89B200F8407C032B3FF6EAAD0C
:1001E000DFE803F00218120C14AB1944002301F8E5
:1001F000403C033292B2ADF80C20C8E514AB194470
:10020000032301F8403CF4E714AB1944022301F83E
:10021000403CEEE714AB1944012301F8403CE8E709
:1002200075DF704776DF70477ADF70477BDF704796
:10023000184B18884FF6FF7398422AD010B5164A0B
:10024000164C1378217B0133DBB2994282B01370D4
:100250000CD2237C002111708BB9636923B102A8F1
:10026000002200F8042D984702B010BD0C49FFF79A
:10027000D7FF0028F8D0A369002BF4D1F4E73B2185
:10028000FFF7D0FF0028E8D0A369002BE5D09847FE
:10029000E3E77047B82C0020782C00207C2C00204D
:1002A000BC2C002070B51E4B1E4A5B8811889942F9
:1002B00082B00FD852889A420CD31B4B5B6923B192
:1002C00002A8012200F8042D9847184C002323703F
:1002D00002B070BD154C227862B1134B5B69002BE4
:1002E000F4D002A8002200F8042D984700232370C0
:1002F00002B070BD0C4D0E4869680678AB680D48B9
:10030000002E18BF1946FCF715FE0028DED0AB6999
:10031000002BDBD098470023237002B070BD00BFD4
:10032000702C0020BC2C00207C2C00206C2C002089
:10033000782C0020982C0020F8B505460FCD144CE1
:10034000144F0FC4064695E80700002384E8070011
:100350003B70B6B13068104B716803C3A3F108005D
:10036000FFF762FF90B90D4D0D4C0E480E4A002369
:100370004FF6FF762E8023701946BDE8F840FCF753
:10038000C7BD0548FFF752FF0028ECD0F8BD00BFFD
:100390007C2C00206C2C0020BC2C0020B82C0020D1
:1003A000782C00206C1002003102020070B5038826
:1003B000112B27D012D9122B07D0502B45D1234C0B
:1003C000C288E3899A4230D070BD083003C8204B00
:1003D00083E80300BDE87040FFF764BF102B33D102
:1003E0001C491A4C1A4B1C4DE48900F118028088F4
:1003F000088092E80300002283E803002A70002CA2
:10040000E8D070BD1349144B14484FF6FF74002216
:100410000C801A70FCF7F8FD0028D5D00B4B9B69B7
:10042000002BD1D0BDE870401847038A022BCBD1F6
:10043000837CDB07CED40948FCF7E6FD0028C3D057
:10044000A369002BEED1BFE770BD70BD7C2C0020EE
:10045000702C0020B82C0020782C0020982C002034
:10046000F0B5984B1B78062B1AD0974AD2F88830F3
:1004700043F47003C2F88830BFF34F8FBFF36F8F20
:100480004FF01023D3F80022002AC0F2EA80D3F8FC
:100490000432002BC0F2E5808C4B8D4A1A60F0BD0F
:1004A0008C4B1B681D07E0D18B4B1B6803F0F003DE
:1004B000302B00F0D280884B1B6803F0F002302A0A
:1004C0006FD003F0E003402B6BD0834B1B6803F02D
:1004D000F003302B00F0B1807F4B1B6803F0F0027B
:1004E000302A6FD003F0E003402B6BD07A4B1B68AF
:1004F00003F0F003302B00F09280774B1B6803F081
:10050000F003302B72D0744B1B6803F0F003502BB8
:10051000ABD14FF08052714BD2F80414C3F82015C0
:10052000D2F80814C3F82415D2F80C14C3F828150F
:10053000D2F81014C3F82C15D2F81414C3F83015DF
:10054000D2F81814C3F83415D2F81C14C3F84015A7
:10055000D2F82014C3F84415D2F82414C3F848156F
:10056000D2F82814C3F84C15D2F82C14C3F850153F
:10057000D2F83014C3F85415D2F83414C3F8601507
:10058000D2F83814C3F86415D2F83C14C3F86815CF
:10059000D2F84014C3F86C15D2F84424C3F870257F
:1005A00063E74F4B474A1B6812784E49C3F3423307
:1005B000062A0B607FF459AF464B1B681C077FF47B
:1005C00054AF82E73F4B1B784FF080420021062B4F
:1005D000C2F80C11C2F81011C2F838157FF445AFFB
:1005E0003C4B1B6819077FF440AF7FE7354B3E4F0C
:1005F0001A783E4D3E483F4B4FF0050E0126002431
:100600003F21062AC7F800E02E60046019607FF4DD
:100610002CAF304B1B681B077FF427AF73E7294BC8
:10062000354A1B780321062B11607FF41EAF294B3E
:100630001B681A077FF419AF5FE7304A2149D36876
:10064000097823F080730629D3607FF40EAF214B25
:100650001B6818077FF409AF3EE7294B294A1A6047
:1006600029E7294B0122C3F80425D3F80024002AE6
:10067000FBD04FF0102315222349C3F80022D1F8F4
:100680000034002BFBD04FF0102315221E49C3F875
:100690000422D1F800241C4B002AFAD00022C3F80F
:1006A0000425D3F80024002AFBD0BFF34F8F06495E
:1006B000164BCA6802F4E0621343CB60BFF34F8F5E
:1006C00000BFFDE7E00F00F000ED00E0802000201B
:1006D0000090D003E40F00F0E80F00F000C00040ED
:1006E000440200103C05004010560040885600406F
:1006F0001856004014560040A0050040F0ED00E000
:1007000074C007400DF0ADBA00E001400400FA05E6
:1007100052DF704710DF704760DF704761DF70475E
:1007200008B5FCF717F808BD2DE9F043DFF8B880ED
:100730002B4FDFF8B8902B4ED8F800503C68B5FA34
:1007400085F5B4FA84F483B06D0964094DB11CB326
:1007500003B0BDE8F083D8F80030019898475CB149
:10076000012401A8FFF7D4FF052826D00028F2D0E5
:10077000FBF7E0FF002CF3D13468B9F80030ADF896
:100780000430204601A9FFF7C9FF0528E8D080B151
:10079000FBF7D0FF0024D9E73468B9F80030ADF892
:1007A0000430204601A9FFF7B9FF0528D0D0002862
:1007B000EED120463B689847ECE7002CC8D134685E
:1007C000B9F80030ADF80430204601A9FFF7A6FFC4
:1007D00005284FF00105DAD103B0BDE8F08300BF72
:1007E000D02C0020C82C0020CC2C0020C62C0020AF
:1007F000F8B50C46074616461D46FCF759FC0CB1E9
:10080000A30701D00720F8BD1448154B154A046012
:1008100015491D6038461680FFF77CFF034600B17E
:10082000F8BD124A12490120107091F8162352099E
:10083000901E052809D8043A012A06D90D4A906865
:1008400030B94FF480030B60F8BD42F20200F8BDEE
:10085000116841F4800111601846F8BDC82C0020D1
:10086000D42C0020C62C002021070200C42C00201C
:1008700000E100E0FC2E0020034618B1024A0020EF
:10088000136070470E207047D02C0020034618B12B
:10089000024A0020136070470E207047CC2C0020C5
:1008A00008B5094B1B6833B1984700B908BDBDE8CE
:1008B0000840FBF73FBF054B1B78002BF6D0BDE887
:1008C0000840FFF731BF00BFD42C0020C42C00200B
:1008D00070B5144605460E46104600211422FBF75B
:1008E00031FE227B2672002363F300020121657230
:1008F00022732361218005B1A172002070BD00BF69
:1009000030B583B00D4B0193019B834212D04FF061
:1009100080530446D3F80C510949019AAD020020D6
:1009200005F100552346FCF7EBFB2A1B0020054987
:10093000FCF7E6FB002003B030BD00BFF81F00202D
:1009400070100200A410020030B583B0184B019360
:1009500002AC019A44F8082D164905460020FCF720
:10096000CFFB21462846FFF7D7FE009A019B9A420B
:10097000044603D1B0B9204603B030BD4FF08053D8
:1009800000200D49D3F80C51FCF7BAFB009B0B4932
:10099000C3EB852202F100520020FCF7B1FB204698
:1009A00003B030BD024606490020FCF7A9FBFEE774
:1009B000F81F0020CC100200F01002002C110200E1
:1009C0005411020073DF704770B586B006AC002387
:1009D00044F8183D804D2870204600F0C9F90828D9
:1009E00000F0408100282BD1009B4BBB7B4E7C4804
:1009F00000210722FBF7A6FD73783BBBB378002BE1
:100A00005ED12B78012B00F0FD80022B00F01781C6
:100A1000327B002A2ED1032B2CD1337E04222A7064
:100A2000002B48D06F4B1A6862B3337853B36E4BC8
:100A30001B783BBB6D4B012107201970904724E0C8
:100A40006B4B01221A70002006B070BD2B78012B71
:100A500005D0B278002A00F0A780022BD8D1614AD5
:100A60001268002A00F00581624B012108201970EC
:100A70009047C6E7327EE2B15A4A126812B1033B90
:100A8000012BD2D9594B00221A700021182220467E
:100A9000FBF758FD297800234A1E8DF8003001939A
:100AA0008DF808300393032A59D8DFE802F0290DA6
:100AB0005B36042BE0D1504A002313702B70E1E722
:100AC0002B78012BC9D1CAE745494B48B2687368F6
:100AD00001910225012105708DF80010ADF812205A
:100AE000ADF810302046FFF76DFF0028ACD13D4B2C
:100AF0001B6813B1404A10789847002006B070BDBB
:100B0000374B3D490193012200230A708DF80020E4
:100B1000ADF81230ADF81030E4E7384BF0691A79CF
:100B2000316AADF81000ADF81210002A46D03278C4
:100B3000002A46D02C4A1178002942D1304A03932A
:100B4000042602231046D6708DF80830FFF78CF883
:100B500000287FF479AF284B297806221A700029E3
:100B6000C5D0BFE7254B70691A793169ADF812001D
:100B7000ADF810104AB3327852B31B4A117839BB22
:100B80001F4A0393042602231046D6708DF80830BE
:100B9000FFF76AF800287FF457AF174B2978052232
:100BA0001A700029A3D09DE7022B7FF431AF327B6E
:100BB00003232B70002A7FF45FAF2EE71A7B002AF5
:100BC000B5D10D4B04221A708CE71A7B002AD2D1C2
:100BD000094B03221A7085E7592D0020242D00208F
:100BE0001C2D0020102D0020152D0020582D002038
:100BF000142D00205A2D00205B2D0020482D0020B0
:100C0000D82C00207278C2B11B4A517800297FF499
:100C100033AF917800297FF42FAFD17800297FF48A
:100C20002BAF117900297FF427AF517900297FF488
:100C300023AF9279002A7FF41FAF02232B70B37881
:100C4000002BB4D00C4B5A7852B99A7842B9DA7862
:100C500032B91A7922B95A7912B99B79002BA6D0E8
:100C6000022309E7204600F095F800283FF4BCAEC7
:100C7000BCE602490A70C5E61C2D00205A2D002052
:100C800010B50388112B17D01B2B09D0102B00D0C7
:100C900010BD837D012BFBD1214B82881A8010BDB2
:100CA000037A002BF4D11F4B1B78013B032BEFD8A9
:100CB000DFE803F02F292016194B82881B881A4978
:100CC00000209A420870E3D10120FFF77DFE002842
:100CD000DED0164B1B68002BDAD0BDE81040184759
:100CE000134B144A1B6800201070002BD0D0BDE8B5
:100CF000104018470F4B032204201A70FFF764FEC0
:100D00000028E6D1C4E70320FFF75EFE0028E0D10B
:100D1000BEE70220FFF758FE0028DAD1B8E700BF8F
:100D200084200020592D0020152D0020182D002092
:100D3000102D00205B2D00200238012802D8094B1D
:100D40001A7802B9704710B50749002208781A705E
:100D5000FFF73AFE28B1054B1B6813B1BDE8104000
:100D6000184710BD142D0020592D0020182D0020EB
:100D7000064B1B685B0701D40820704720B1044B69
:100D80005B780360002070470E207047282E0020FB
:100D90005C2D002020B1034B5B6D03600020704789
:100DA000032070472C2E00200649074A074B9B1A48
:100DB00003DD043BC858D050FBDCFFF751FBFBF7C9
:100DC0004DFB00007C110200F81F00209420002041
:100DD000FEE7FEE7FEE7FEE7FEE7FEE7FEE7FEE7EB
:100DE000FEE7FEE710B5431E0A44914204D011F815
:100DF000014B03F8014FF8E710BD034611F8012B32
:100E000003F8012B002AF9D17047034613F8012B90
:100E1000002AFBD1181A013870470000F8B500BF4E
:100E2000F8BC08BC9E467047F8B500BFF8BC08BCCB
:100E30009E46704743000000F81F0020BC200020A1
:100E40004E6F726D616C0000496E70757400000029
:100E50005465726D696E616C00000000525454005C
:100E60005345474745520000303132333435363729
:100E70003839414243444546DC290020B02900204E
:100E80000D00030035E701000E00030035E7010007
:100E90000F00030035E701001000030035E70100F3
:100EA000002A002001000007AAFE010049276D204A
:100EB000696E2074686520726561642065767420AF
:100EC00068616E646C65722E0A000000476F7420C2
:100ED000424C45204576656E742E2049643A2025A3
:100EE000640A0000476F7420424C4520436F6E6EC9
:100EF000656374696F6E2E2048616E646C653A207C
:100F000025640A00424C452048616E646C653A20B5
:100F1000256420446973636F6E6E65637465642E27
:100F20000A0000005374617274696E672075702046
:100F3000426561636F6E42756464790A0000000067
:100F4000536F66746465766963652067657463666C
:100F500067204572726F722025640A005555494416
:100F600020436F756E742025640A0000536F667409
:100F70006C696E6B20456E61626C65204572726FA4
:100F8000722025640A000000536F667464657669F8
:100F9000636520626C656576742068616E646C655B
:100FA0007220736574204572726F722025640A0086
:100FB000536F6674646576696365207379736576CB
:100FC000742068616E646C6572207365742045726C
:100FD000726F722025640A00506861744265616313
:100FE0006F6E0000D3FF6ACA7CA9A5B6A84B87E53F
:100FF000000059AEFA66C9C19B80CC9CCA469924B0
:101000000000A5D1555549442076732041646420E1
:1010100053204572726F722025640A004741545470
:10102000532053766320616464204572726F72208E
:1010300025640A0055554944207673204164642094
:1010400043204572726F722025640A004661746203
:101050006561636F6E20636861722061646420451E
:1010600072726F722025640A00000000982C002024
:1010700052414D2053544152542041444452203057
:101080007825782073686F756C64206265206164D0
:101090006A757374656420746F20307825780D0A42
:1010A0000000000052414D2053495A452073686F9B
:1010B000756C642062652061646A75737465642070
:1010C000746F2030782578200D0A000073645F6209
:1010D0006C655F656E61626C653A2052414D2053CC
:1010E0005441525420617420307825780D0A000054
:1010F00073645F626C655F656E61626C653A206106
:1011000070705F72616D5F626173652073686F7587
:101110006C642062652061646A7573746564207410
:101120006F20307825780D0A0000000072616D2074
:1011300073697A652073686F756C642062652061DD
:10114000646A757374656420746F20307825782024
:101150000D0A000073645F626C655F656E61626CAE
:10116000653A206572726F7220307825780D0A001A
:04117000000000007B
:08117400E8B2FF7F010000005A
:10117C000000000000000000000000000000000063
:10118C000000000000000000000000000000000053
:10119C00340E0200000000000000000000000000FF
:1011AC000000000000000000000000000000000033
:1011BC000000000000000000000000000000000023
:1011CC000000000000000000000000000000000013
:1011DC003C48313E4869205468657265213C2F4873
:1011EC00313E0000FFFF000010EE0E486920466102
:1011FC0074626561636F6E210090D003FFFF000085
:0C120C0025C4010001C401000000000026
:0400000320000DA923
:00000001FF
